:100000000C944A010C947B010C947B010C947B01B1
:100010000C947B010C947B010C947B010C947B0170
:100020000C947B010C947B010C947B010C947B0160
:100030000C947B010C947B010C947B010C947B0150
:100040000C947B010C947B010C947B010C947B0140
:100050000C947B010C947B010C947B010C94A40404
:100060000C947B010C946E040C9444040C947B015E
:100070000C947B010C947B010C947B010C947B0110
:100080000C947B010C947B010C947B010C947B0100
:100090000C947B010C947B010C947B010C947B01F0
:1000A0000C947B010C947B010C947B010C947B01E0
:1000B0000C947B010C947B010C947B010C947B01D0
:1000C0000C947B010C947B010C947B010C947B01C0
:1000D0000C947B010C947B010C947B010C947B01B0
:1000E0000C947B010C9484030C943E030C94B70392
:1000F0000C94EE030C942C030C949D030C943A0383
:100100000C947F020C9417030C9493030C94C90174
:100110000C940C040C9405030C9400060C9423031B
:100120000C947F030C9456030C9489030C9448039D
:100130000C9436030C9416040C94CB030C941F03FC
:100140000C94D8010C9426030C94F8030C9400032F
:100150000C94EC010C941B030C94FA010C944403D2
:100160000C9402040C94C1030C949C010C94520353
:100170000C944C030C9432020C94E4030C94AF03E3
:100180000C94D5030C9430030C94A70300000A0BC5
:1001900002090C0D0E080703040100000000000016
:1001A000000000000000000000000000000000004F
:1001B000000000000000000012111000000000000C
:1001C000000000000000000000000000000000002F
:1001D000000000002200250028002B002E00310026
:1001E000340002010000050108010B01000021009C
:1001F000240027002A002D003000330001010000F8
:10020000040107010A010505050507050808080896
:10021000020202020A0A080804040404010101019E
:100220000101010103030303030303030407070799
:100230000C0C0C0C0C0C0C0C02020202060606063E
:10024000060606060B0B0B0B0B0B0B0B010210200B
:1002500020080810204010204080020102010804FC
:100260000201010204081020408080402010080490
:1002700002018004020180402010080402010804E9
:10028000020101020408102040800102040810202D
:100290004080000611241FBECFEFD1E2DEBFCDBFEC
:1002A00000E00CBF12E0A0E0B2E0EEE6FCE000E00F
:1002B0000BBF02C007900D92A231B107D9F722E01F
:1002C000A2E1B2E001C01D92A83BB207E1F711E044
:1002D000CAE4D1E000E006C021970109802FFE01A9
:1002E0000E942D06C934D10780E00807A9F70E94B3
:1002F000EE040C9435060C94000090E0FC01E45BE5
:10030000FD4F24918A5F9D4FFC018491882399F0D1
:1003100090E0880F991FFC01E451FE4FA591B49124
:10032000FC01EE52FE4F859194918FB7F894EC91B9
:10033000E22BEC938FBF0895AF92BF92CF92DF92E2
:10034000EF92FF920F931F93CF93DF936C017B018A
:100350008B01040F151FEB015E01AE18BF08C0171B
:10036000D10759F06991D601ED91FC910190F0818E
:10037000E02DC6011995892B79F7C501DF91CF9141
:100380001F910F91FF90EF90DF90CF90BF90AF90B3
:100390000895FC01538D448D252F30E0842F90E08B
:1003A000821B930B541710F0CF9608950197089570
:1003B000FC01918D828D981761F0A28DAE0FBF2F39
:1003C000B11D5D968C91928D9F5F9F73928F90E08F
:1003D00008958FEF9FEF0895FC01918D828D9817FE
:1003E00031F0828DE80FF11D858D90E008958FEF3B
:1003F0009FEF0895FC01918D228D892F90E0805C04
:100400009F4F821B91098F73992708958BE192E08A
:100410000E94FA0121E0892B09F420E0822F08953F
:10042000FC01A48DA80FB92FB11DA35ABF4F2C9169
:10043000848D90E001968F739927848FA689B78960
:100440002C93A089B1898C91837080648C93938D57
:10045000848D981306C00288F389E02D80818F7DFA
:1004600080830895EF92FF920F931F93CF93DF93B2
:10047000EC0181E0888F9B8D8C8D98131AC0E889E0
:10048000F989808185FF15C09FB7F894EE89FF89AF
:100490006083E889F98980818370806480839FBF4D
:1004A00081E090E0DF91CF911F910F91FF90EF904D
:1004B0000895F62E0B8D10E00F5F1F4F0F7311275D
:1004C000E02E8C8D8E110CC00FB607FCFACFE88998
:1004D000F989808185FFF5CFCE010E941002F1CF0E
:1004E000EB8DEC0FFD2FF11DE35AFF4FF0829FB70C
:1004F000F8940B8FEA89FB8980818062CFCFCF93FC
:10050000DF93EC01888D8823B9F0AA89BB89E8893B
:10051000F9898C9185FD03C0808186FD0DC00FB6E1
:1005200007FCF7CF8C9185FFF2CF808185FFEDCF5F
:10053000CE010E941002E9CFDF91CF91089580E0B3
:1005400090E0892B29F00E94060281110E94000090
:1005500080E090E0892B49F080E090E0892B29F041
:100560000E94000081110E94000080E090E0892B31
:1005700049F080E090E0892B29F00E940000811171
:100580000E94000080E090E0892B49F080E090E03C
:10059000892B29F00E94000081110C94000008951D
:1005A000282F30E0F901E457FE4F9491F901E45B04
:1005B000FD4F44912A5F3D4FF9012491222309F414
:1005C00035C0992311F191509231F8F4E92FF0E000
:1005D0008827E251FD4F8F4F0C942D061F032303F4
:1005E000000317031B03050326032C033003360304
:1005F0003A033E034403480305034C0352035603E6
:10060000809180008F7780938000E22FF0E0EE0FE2
:10061000FF1FEE52FE4FA591B4918FB7F894EC9165
:10062000611148C040954E234C938FBF089580912F
:1006300080008F7DE8CF80918000877FE4CF84B5F4
:100640008F7784BDE2CF84B58F7DFBCF8091B000E2
:100650008F778093B000D9CF8091B0008F7DF9CF94
:10066000809190008F7780939000CFCF8091900001
:100670008F7DF9CF80919000877FF5CF8091A0008A
:100680008F778093A000C1CF8091A0008F7DF9CF9C
:100690008091A000877FF5CF809120018F77809394
:1006A0002001B3CF809120018F7DF9CF809120016F
:1006B000877FF5CF4E2BB8CF982FE82FF0E0E45787
:1006C000FE4FE491E150E23108F0B0C0F0E088273D
:1006D000E359FC4F8F4F0C942D067F03840389034D
:1006E00093039D031604A703AF03B703C103CB0312
:1006F000D503E403EE031604F80302040C0484B5E6
:10070000806884BD67BD089584B5806284BD68BD7E
:1007100008958091800080688093800070938900A4
:1007200060938800089580918000806280938000AB
:1007300070938B0060938A00089580918000886098
:100740008093800070938D0060938C000895809159
:10075000B00080688093B0006093B30008958091EA
:10076000B00080628093B0006093B40008958091DF
:100770009000806880939000709399006093980037
:1007800008958091900080628093900070939B0008
:1007900060939A0008958091900088608093900003
:1007A00070939D0060939C0008958091A0008068E4
:1007B0008093A0008091A0008F7B8093A000709315
:1007C000A9006093A80008958091A00080628093A2
:1007D000A0007093AB006093AA0008958091A000E0
:1007E00088608093A0007093AD006093AC00089582
:1007F000809120018068809320017093290160938B
:1008000028010895809120018062809320017093D7
:100810002B0160932A0108958091200188608093C4
:10082000200170932D0160932C01089560387105AB
:1008300024F460E0892F0C94D00261E0FBCF3FB735
:10084000F8948091170290911802A0911902B0912A
:100850001A0226B5A89B05C02F3F19F00196A11DCD
:10086000B11D3FBFBA2FA92F982F8827BC01CD01FA
:10087000620F711D811D911D42E0660F771F881F59
:10088000991F4A95D1F708951F920F920FB60F92B4
:1008900011240BB60F922F933F934F935F936F9357
:1008A0007F938F939F93AF93BF93EF93FF938BE1CE
:1008B00092E00E941002FF91EF91BF91AF919F9142
:1008C0008F917F916F915F914F913F912F910F90F9
:1008D0000BBE0F900FBE0F901F9018951F920F9296
:1008E0000FB60F9211240BB60F922F938F939F93F5
:1008F000EF93FF93E0912B02F0912C028081E09125
:100900003102F091320282FD1DC09081809134024B
:100910008F5F8F7320913502821741F0E09134028E
:10092000F0E0E55EFD4F958F80933402FF91EF91EB
:100930009F918F912F910F900BBE0F900FBE0F9034
:100940001F9018958081F2CF1F920F920FB60F92D1
:1009500011242F933F938F939F93AF93BF938091D5
:10096000130290911402A0911502B09116023091D9
:10097000120223E0230F2D3758F50196A11DB11D5A
:10098000209312028093130290931402A0931502F5
:10099000B09316028091170290911802A09119024B
:1009A000B0911A020196A11DB11D80931702909378
:1009B0001802A0931902B0931A02BF91AF919F91B0
:1009C0008F913F912F910F900FBE0F901F90189510
:1009D00026E8230F0296A11DB11DD2CF789484B5CD
:1009E000826084BD84B5816084BD85B5826085BD2B
:1009F00085B5816085BD80916E00816080936E00B9
:100A000010928100809181008260809381008091AA
:100A1000810081608093810080918000816080935B
:100A200080008091B10084608093B1008091B0001B
:100A300081608093B00080919100826080939100EA
:100A400080919100816080939100809190008160FD
:100A5000809390008091A10082608093A10080919A
:100A6000A10081608093A1008091A00081608093AB
:100A7000A000809121018260809321018091210159
:100A80008160809321018091200181608093200109
:100A900080917A00846080937A0080917A008260ED
:100AA00080937A0080917A00816080937A008091AF
:100AB0007A00806880937A001092C10082E00E94E0
:100AC0007D0183E00E947D018EE00E947D018FE028
:100AD0000E947D0184E00E947D0185E00E947D01ED
:100AE00080E10E947D0181E10E947D01E0912B0265
:100AF000F0912C0282E08083E0912702F09128029D
:100B00001082E0912902F0912A028FEC80831092EA
:100B10003302E0912F02F091300286E08083E09171
:100B20002D02F0912E02808180618083E0912D0260
:100B3000F0912E02808188608083E0912D02F091F7
:100B40002E02808180688083E0912D02F0912E0238
:100B500080818F7D808382E00E947D016CED70E05A
:100B600082E00E945C0383E00E947D0160E083E0FC
:100B70000E94D00260E08EE00E94D00261E08FE02F
:100B80000E94D00284E00E947D016CED70E084E060
:100B90000E945C0385E00E947D0160E085E00E9488
:100BA000D00260E080E10E94D00261E081E10E9419
:100BB000D0020E941F044B015C0188ECC82ED12C8E
:100BC000E12CF12C0E941F04681979098A099B09FC
:100BD000683E734081059105A8F321E0C21AD1084F
:100BE000E108F10888EE880E83E0981EA11CB11C74
:100BF000C114D104E104F10429F70E949F02ABCF94
:100C0000EBE1F2E01382128288EE93E0A0E0B0E024
:100C100084839583A683B78384E092E09183808365
:100C200085EC90E09587848784EC90E097878687B1
:100C300080EC90E0918B808B81EC90E0938B828BA9
:100C400082EC90E0958B848B86EC90E0978B868B82
:100C5000118E128E138E148E0895EE0FFF1F881FB3
:0E0C60008BBF0790F691E02D1994F894FFCF0A
:100C6E000000000032029C01C9017F02FA01D80186
:020C7E00EC0187
:00000001FF
